{
  "_format": "hh-sol-artifact-1",
  "contractName": "DidRegistry",
  "sourceName": "contracts/DidRegistry.sol",
  "abi": [
    {
      "inputs": [
        {
          "internalType": "string",
          "name": "",
          "type": "string"
        }
      ],
      "name": "controllers",
      "outputs": [
        {
          "internalType": "address",
          "name": "",
          "type": "address"
        }
      ],
      "stateMutability": "view",
      "type": "function"
    },
    {
      "inputs": [
        {
          "internalType": "string",
          "name": "did",
          "type": "string"
        },
        {
          "internalType": "address",
          "name": "controller",
          "type": "address"
        }
      ],
      "name": "createDID",
      "outputs": [],
      "stateMutability": "nonpayable",
      "type": "function"
    },
    {
      "inputs": [
        {
          "internalType": "string",
          "name": "did",
          "type": "string"
        }
      ],
      "name": "getController",
      "outputs": [
        {
          "internalType": "address",
          "name": "",
          "type": "address"
        }
      ],
      "stateMutability": "view",
      "type": "function"
    },
    {
      "inputs": [
        {
          "internalType": "string",
          "name": "did",
          "type": "string"
        },
        {
          "internalType": "address",
          "name": "newController",
          "type": "address"
        }
      ],
      "name": "updateController",
      "outputs": [],
      "stateMutability": "nonpayable",
      "type": "function"
    }
  ],
  "bytecode": "0x6080604052348015600f57600080fd5b506105808061001f6000396000f3fe608060405234801561001057600080fd5b506004361061004c5760003560e01c806363a27111146100515780637cbde5af146100815780638994bb871461009d578063b2cacb04146100cd575b600080fd5b61006b60048036038101906100669190610395565b6100e9565b604051610078919061041f565b60405180910390f35b61009b60048036038101906100969190610466565b610130565b005b6100b760048036038101906100b29190610395565b610191565b6040516100c4919061041f565b60405180910390f35b6100e760048036038101906100e29190610466565b6101da565b005b600080826040516100fa9190610533565b908152602001604051809103902060009054906101000a900473ffffffffffffffffffffffffffffffffffffffff169050919050565b806000836040516101419190610533565b908152602001604051809103902060006101000a81548173ffffffffffffffffffffffffffffffffffffffff021916908373ffffffffffffffffffffffffffffffffffffffff1602179055505050565b6000818051602081018201805184825260208301602085012081835280955050505050506000915054906101000a900473ffffffffffffffffffffffffffffffffffffffff1681565b806000836040516101eb9190610533565b908152602001604051809103902060006101000a81548173ffffffffffffffffffffffffffffffffffffffff021916908373ffffffffffffffffffffffffffffffffffffffff1602179055505050565b6000604051905090565b600080fd5b600080fd5b600080fd5b600080fd5b6000601f19601f8301169050919050565b7f4e487b7100000000000000000000000000000000000000000000000000000000600052604160045260246000fd5b6102a282610259565b810181811067ffffffffffffffff821117156102c1576102c061026a565b5b80604052505050565b60006102d461023b565b90506102e08282610299565b919050565b600067ffffffffffffffff821115610300576102ff61026a565b5b61030982610259565b9050602081019050919050565b82818337600083830152505050565b6000610338610333846102e5565b6102ca565b90508281526020810184848401111561035457610353610254565b5b61035f848285610316565b509392505050565b600082601f83011261037c5761037b61024f565b5b813561038c848260208601610325565b91505092915050565b6000602082840312156103ab576103aa610245565b5b600082013567ffffffffffffffff8111156103c9576103c861024a565b5b6103d584828501610367565b91505092915050565b600073ffffffffffffffffffffffffffffffffffffffff82169050919050565b6000610409826103de565b9050919050565b610419816103fe565b82525050565b60006020820190506104346000830184610410565b92915050565b610443816103fe565b811461044e57600080fd5b50565b6000813590506104608161043a565b92915050565b6000806040838503121561047d5761047c610245565b5b600083013567ffffffffffffffff81111561049b5761049a61024a565b5b6104a785828601610367565b92505060206104b885828601610451565b9150509250929050565b600081519050919050565b600081905092915050565b60005b838110156104f65780820151818401526020810190506104db565b60008484015250505050565b600061050d826104c2565b61051781856104cd565b93506105278185602086016104d8565b80840191505092915050565b600061053f8284610502565b91508190509291505056fea26469706673582212208fa916eaee3211f2fb505437f43bdb5510537781a7df81b82b51176cecb19c4c64736f6c634300081c0033",
  "linkReferences": {},
  "deployedLinkReferences": {}
}